{
  "_format": "hh-sol-artifact-1",
  "contractName": "GhiseuAmenzi",
  "sourceName": "contracts/GhiseuAmenzi.sol",
  "abi": [
    {
      "inputs": [],
      "stateMutability": "nonpayable",
      "type": "constructor"
    },
    {
      "inputs": [
        {
          "internalType": "string",
          "name": "idAmenda",
          "type": "string"
        },
        {
          "internalType": "uint256",
          "name": "suma",
          "type": "uint256"
        }
      ],
      "name": "adaugaAmenda",
      "outputs": [],
      "stateMutability": "nonpayable",
      "type": "function"
    },
    {
      "inputs": [
        {
          "internalType": "string",
          "name": "",
          "type": "string"
        }
      ],
      "name": "amenzi",
      "outputs": [
        {
          "internalType": "uint256",
          "name": "suma",
          "type": "uint256"
        },
        {
          "internalType": "bool",
          "name": "platita",
          "type": "bool"
        }
      ],
      "stateMutability": "view",
      "type": "function"
    },
    {
      "inputs": [],
      "name": "owner",
      "outputs": [
        {
          "internalType": "address",
          "name": "",
          "type": "address"
        }
      ],
      "stateMutability": "view",
      "type": "function"
    },
    {
      "inputs": [
        {
          "internalType": "string",
          "name": "idAmenda",
          "type": "string"
        }
      ],
      "name": "platesteAmenda",
      "outputs": [],
      "stateMutability": "payable",
      "type": "function"
    },
    {
      "inputs": [],
      "name": "retrageFonduri",
      "outputs": [],
      "stateMutability": "nonpayable",
      "type": "function"
    },
    {
      "inputs": [
        {
          "internalType": "string",
          "name": "idAmenda",
          "type": "string"
        }
      ],
      "name": "verificaStatus",
      "outputs": [
        {
          "internalType": "bool",
          "name": "",
          "type": "bool"
        }
      ],
      "stateMutability": "view",
      "type": "function"
    }
  ],
  "bytecode": "0x608060405234801561001057600080fd5b5033600160006101000a81548173ffffffffffffffffffffffffffffffffffffffff021916908373ffffffffffffffffffffffffffffffffffffffff160217905550610a13806100616000396000f3fe6080604052600436106100555760003560e01c80630b9fa1ad1461005a57806358bc434a146100765780637da25e7a1461008d5780637ddcbe87146100cb5780638da5cb5b14610108578063ae3bc74814610133575b600080fd5b610074600480360381019061006f919061065b565b61015c565b005b34801561008257600080fd5b5061008b61026b565b005b34801561009957600080fd5b506100b460048036038101906100af919061065b565b610366565b6040516100c29291906106d8565b60405180910390f35b3480156100d757600080fd5b506100f260048036038101906100ed919061065b565b6103ad565b6040516100ff9190610701565b60405180910390f35b34801561011457600080fd5b5061011d6103e4565b60405161012a919061075d565b60405180910390f35b34801561013f57600080fd5b5061015a600480360381019061015591906107a4565b61040a565b005b60008160405161016c9190610871565b908152602001604051809103902060010160009054906101000a900460ff16156101cb576040517f08c379a00000000000000000000000000000000000000000000000000000000081526004016101c2906108e5565b60405180910390fd5b6000816040516101db9190610871565b908152602001604051809103902060000154341461022e576040517f08c379a000000000000000000000000000000000000000000000000000000000815260040161022590610951565b60405180910390fd5b60016000826040516102409190610871565b908152602001604051809103902060010160006101000a81548160ff02191690831515021790555050565b600160009054906101000a900473ffffffffffffffffffffffffffffffffffffffff1673ffffffffffffffffffffffffffffffffffffffff163373ffffffffffffffffffffffffffffffffffffffff16146102fb576040517f08c379a00000000000000000000000000000000000000000000000000000000081526004016102f2906109bd565b60405180910390fd5b600160009054906101000a900473ffffffffffffffffffffffffffffffffffffffff1673ffffffffffffffffffffffffffffffffffffffff166108fc479081150290604051600060405180830381858888f19350505050158015610363573d6000803e3d6000fd5b50565b6000818051602081018201805184825260208301602085012081835280955050505050506000915090508060000154908060010160009054906101000a900460ff16905082565b600080826040516103be9190610871565b908152602001604051809103902060010160009054906101000a900460ff169050919050565b600160009054906101000a900473ffffffffffffffffffffffffffffffffffffffff1681565b600160009054906101000a900473ffffffffffffffffffffffffffffffffffffffff1673ffffffffffffffffffffffffffffffffffffffff163373ffffffffffffffffffffffffffffffffffffffff161461049a576040517f08c379a0000000000000000000000000000000000000000000000000000000008152600401610491906109bd565b60405180910390fd5b6040518060400160405280828152602001600015158152506000836040516104c29190610871565b90815260200160405180910390206000820151816000015560208201518160010160006101000a81548160ff0219169083151502179055509050505050565b6000604051905090565b600080fd5b600080fd5b600080fd5b600080fd5b6000601f19601f8301169050919050565b7f4e487b7100000000000000000000000000000000000000000000000000000000600052604160045260246000fd5b6105688261051f565b810181811067ffffffffffffffff8211171561058757610586610530565b5b80604052505050565b600061059a610501565b90506105a6828261055f565b919050565b600067ffffffffffffffff8211156105c6576105c5610530565b5b6105cf8261051f565b9050602081019050919050565b82818337600083830152505050565b60006105fe6105f9846105ab565b610590565b90508281526020810184848401111561061a5761061961051a565b5b6106258482856105dc565b509392505050565b600082601f83011261064257610641610515565b5b81356106528482602086016105eb565b91505092915050565b6000602082840312156106715761067061050b565b5b600082013567ffffffffffffffff81111561068f5761068e610510565b5b61069b8482850161062d565b91505092915050565b6000819050919050565b6106b7816106a4565b82525050565b60008115159050919050565b6106d2816106bd565b82525050565b60006040820190506106ed60008301856106ae565b6106fa60208301846106c9565b9392505050565b600060208201905061071660008301846106c9565b92915050565b600073ffffffffffffffffffffffffffffffffffffffff82169050919050565b60006107478261071c565b9050919050565b6107578161073c565b82525050565b6000602082019050610772600083018461074e565b92915050565b610781816106a4565b811461078c57600080fd5b50565b60008135905061079e81610778565b92915050565b600080604083850312156107bb576107ba61050b565b5b600083013567ffffffffffffffff8111156107d9576107d8610510565b5b6107e58582860161062d565b92505060206107f68582860161078f565b9150509250929050565b600081519050919050565b600081905092915050565b60005b83811015610834578082015181840152602081019050610819565b60008484015250505050565b600061084b82610800565b610855818561080b565b9350610865818560208601610816565b80840191505092915050565b600061087d8284610840565b915081905092915050565b600082825260208201905092915050565b7f416d656e64612064656a6120706c617469746121000000000000000000000000600082015250565b60006108cf601483610888565b91506108da82610899565b602082019050919050565b600060208201905081810360008301526108fe816108c2565b9050919050565b7f53756d6120696e636f7265637461210000000000000000000000000000000000600082015250565b600061093b600f83610888565b915061094682610905565b602082019050919050565b6000602082019050818103600083015261096a8161092e565b9050919050565b7f4e752065737469206175746f72697a6174210000000000000000000000000000600082015250565b60006109a7601283610888565b91506109b282610971565b602082019050919050565b600060208201905081810360008301526109d68161099a565b905091905056fea26469706673582212202412efe389f9f62354da171cde6a10ee7b920f8a3ccc4b282e65e864f283467064736f6c63430008180033",
  "linkReferences": {},
  "deployedLinkReferences": {}
}